:100000000C94C3030C94E0030C94E0030C94E00301
:100010000C94E0030C94E0030C94E0030C94E003D4
:100020000C94E0030C94E0030C94612C0C94332D9D
:100030000C94C7240C94E0030C94E0030C94E003AC
:100040000C94E0030C94E0030C94E0030C94E003A4
:100050000C94E0030C942F250C94E0030C94E00323
:100060000C94E0030C94E0030C94E0030C94E00384
:100070000C94E0030C94E0030C94E0030C94E00374
:100080000C94E0030C94E0030C94E0030C94E00364
:100090000C94E0030C94E0030C94E0030C94E00354
:1000A0000C94E0030C94E0030C94E00338043B044C
:1000B0003E044104440447044A0473077807820756
:1000C00076077B0780077E07F208F408FF08F6082A
:1000D000F808FA08FC08FE080109030905091009D7
:1000E000070909090B090D090F091209F319F31979
:1000F000251A251A5C1A7C1AE51B431CBE1A431CE0
:100100006B1B6B1BDC1B431C431C3D1C781B781BAF
:10011000781B781B781B781B781B781B781B781B47
:10012000781B781B781B781B781B781B891B961B08
:100130009D1BA41BAE1BCE1CCE1CE01CE01CD71CC0
:10014000E01CE01CE01CCE1CCE1CDC1CE01CE01CF7
:10015000DC1CA02DC72DB92EC72DB92E132E362E7F
:10016000B92E8C2E9B2E07634236B79BD8A71A391F
:10017000685618AEBAAB558C1D3CB7CC5763BD6DF5
:10018000EDFD753EF6177231BF000000803F05A8F7
:100190004CCDB2D44EB93836A9020C50B9918688EC
:1001A000083CA6AAAA2ABE000000803F6572676FBD
:1001B000646F785F657A2F35343635376436333976
:1001C0006437376137643932353430204020302E7F
:1001D000362E3237332D31362D6762346534626501
:1001E0002D6469727479000000F0A12900000400F8
:1001F000612B00004100001E00140004001D002DB2
:10020000004D001F001A0016001B002E002A0020BF
:100210000008000700060050002C0021001500090E
:100220000019004F004A00220017000A00050000D4
:10023000006564AA0001530000000F00004600A9F9
:10024000003400000035000000E20023001C000B19
:1002500000110000002961240018000D0010005258
:10026000004B0025000C000E00360051002800262F
:100270000012000F0037002F000072270013003318
:1002800000380030004E00E3000253640065003285
:100290000000002900010001000100010000003AF7
:1002A000001E02200222020100E75C3B001F022127
:1002B0000223020100C95C3C002F0226022F00012C
:1002C00000CA5C3D003002270230000100C35C3EE2
:1002D000003102350035020000010001000100007C
:1002E0000001000000C25C010001000000010000EC
:1002F0000001003F005200510024020000010040B4
:1003000000240021001E00A9000100410025002258
:10031000001F00AA00C55C42002600230020002721
:1003200000C65C43002502010031002E000100E3FD
:100330000002530100010001000000010001000162
:1003400000010001000000010001000100010001A6
:1003500000010001000100F20001000100010001A4
:1003600000F000F1000100F400010001000100F3C1
:10037000000100F500010001000100010001000082
:100380000001000100010000000100000001000167
:100390000001000000010000000100010001000157
:1003A000000100000001000100010001000100A99E
:1003B000000100010001000100AC00AA00B600012C
:1003C0000001000100AB00A80001000100010001D4
:1003D0000001000100010001000100AE0001000168
:1003E00000000000000000000000002A2B28000090
:1003F00000000000000000000000000000002900D4
:100400000000002C1E3420212224342627252E36DD
:100410002D3738271E1F202122232425263333364B
:100420002E37381F0405060708090A0B0C0D0E0F9E
:10043000101112131415161718191A1B1C1D2F3121
:1004400030232D350405060708090A0B0C0D0E0F85
:10045000101112131415161718191A1B1C1D2F3101
:1004600030354C00000000000000000000000000DB
:10047000000000000000000000000000000000007C
:100480000000000001010101010100010101010062
:10049000000000000000000000000000000100015A
:1004A000000101010101010101010101010101013D
:1004B000010101010101010101010101010100002E
:1004C000000101000000000000000000000000002A
:1004D000000000000000000000000000000001011A
:1004E00001010000047F3F1F643214643214783C21
:1004F0001E1E140A056801F000B40078005A0000BE
:1005000000000000010101010101010101020202DC
:1005100002020202020203030303030303030404AF
:100520000404040405050505050606060606070776
:100530000707080808080909090A0A0A0A0B0B0B29
:100540000C0C0C0D0D0D0E0E0F0F0F1010111111C4
:100550001212131314141515161617171818191943
:100560001A1A1B1C1C1D1D1E1F1F202021222223A6
:1005700024252526272728292A2B2B2C2D2E2F2FE3
:1005800030313233343536363738393A3B3C3D3EFC
:100590003F4041424344464748494A4B4C4D4F50E7
:1005A000515253555657585A5B5C5E5F60626364A4
:1005B0006667696A6C6D6E707173747678797B7C2E
:1005C0007E8081838486888A8B8D8F919294969881
:1005D0009A9B9D9FA1A3A5A7A9ABADAFB1B3B5B79A
:1005E000B9BBBDBFC1C4C6C8CACCCFD1D3D6D8DA77
:1005F000DCDFE1E4E6E8EBEDF0F2F5F7FAFCFF040E
:10060000033000000016034500720067006F0044CD
:10061000006F007800200045005A000000160345D6
:1006200000720067006F0044006F007800200045F2
:10063000005A0000000403090409023B0002010003
:10064000A0FA0904000001030101000921110100C1
:10065000012240000705810308000A090401000186
:100660000300000009211101000122C000070582DA
:100670000320000A1201100100000008EDFE07131C
:1006800001000102030105010902A101850209011E
:10069000A100050919012905150025019505750118
:1006A0008102950175038101050109300931158128
:1006B000257F95027508810609381581257F9501EA
:1006C00075088106050C0A38021581257F9501758C
:1006D000088106C0C005010980A10185031601003B
:1006E0002603001A81002A8300751095018100C03D
:1006F000050C0901A1018504160100269C021A01BE
:10070000002A9C02751095018100C005010906A10F
:10071000018505050719E029E715002501950875EC
:1007200001810205081901290595057501910295B8
:1007300001750391010507190029EF1500250195A1
:10074000F075018102C005010906A101050719E044
:1007500029E71500250195087501810295017508A5
:100760008101050819012905950575019102950179
:10077000750391010507190029FF150026FF009553
:100780000675088100C011241FBECFEFDAE0DEBF7E
:10079000CDBF11E0A0E0B1E0E0E4FBE602C00590CF
:1007A0000D92A23DB107D9F723E0A2EDB1E001C05F
:1007B0001D92AB3BB207E1F70E9483290C949E3552
:1007C0000C94000080B38C7080BB81B3836F81BBBD
:1007D000089584B1807F84B985B1807F85B98AB15D
:1007E000837F8AB98BB1837F8BB93E9846980895F1
:1007F000CF93E82F873090F580910001909101010F
:10080000892B09F049C0CE2F64E670E080E40E9495
:1008100079059093010180930001892BD1F464E65E
:1008200070E082E10E94D005909301018093000165
:10083000892B79F481E090E001C0880FCA95EAF72E
:1008400064E670E080950E94D0059093010180934A
:10085000000184E690E0CF910C94250690E0FC0125
:100860003797E730F105C0F4EA5AFF4F0C945E3237
:10087000209A289811C0219A29980EC0229A2A9865
:100880000BC0239A2B9808C0529A5A9805C0539AC5
:100890005B9802C03E9A4698CF91089508950895B6
:1008A0000C944F04CF93DF930E94B70690E090938F
:1008B0000101809300010E94E9030E94E203A7E284
:1008C000B2E023ED31E0E5E3F2E04EE04E0F1192AD
:1008D0001D9280E090E0E901C80FD91F18820196AF
:1008E00086309105C1F72A5F3F4F4E13F0CFDF915D
:1008F000CF910C9424080E94B70690E090930101D8
:10090000809300010E94E9030E94E203E5E3F2E024
:100910008EE08E0F11928E13FDCF0895CF93DF934B
:10092000E62FF0E0E95DFD4F40814827808386E0B7
:10093000689FF0011124ED52FE4F20E030E080E08E
:1009400061E070E050E0AAE0B22F9081992319F0A5
:100950009150908307C0EB01022E01C0CC0F0A9486
:10096000EAF78C2BEA0102C0D595C795BA95E2F754
:10097000C0FDA0832F5F3F4F31962630310521F710
:10098000DF91CF910895CF93DF93D82F873008F070
:1009900040C08091000190910101892B09F042C073
:1009A00064E670E080E40E947905909301018093F1
:1009B0000001892B11F0C0E027C064E670E083E1FC
:1009C0000E94D0059093010180930001892B99F733
:1009D00064E670E081E40E947905909301018093C0
:1009E0000001892B41F784E690E00E94000697FF02
:1009F00005C09093010180930001DDCFC82FC09501
:100A0000109201011092000184E690E00E942506F8
:100A10000AC09FB1CFB1C07FC695C6959370C92B50
:100A2000C09501C0C0E06D2F8C2F0E948E04282F2E
:100A30002095ED2FF0E0EB5CFD4F908192238C230D
:100A4000892BDF91CF910895EF92FF920F931F931F
:100A5000CF93DF938091000190910101892B91F058
:100A60008091D2018F5F8093D20181110BC00E94CF
:100A7000B70690E09093010180930001892B11F457
:100A80000E94490685E3E82E82E0F82E0CE312E08E
:100A9000C0E08C2F0E94F803D7E0DC0F8D2F0E945E
:100AA000F8038C2F0E94C304F70181937F018D2FDF
:100AB0000E94C304F80181938F010E94E903CF5F74
:100AC000C73039F70E942E0881E0DF91CF911F9146
:100AD0000F91FF90EF900895E82FF0E0EB5CFD4F51
:100AE0008081089508951092B9008CE08093B80039
:100AF0000895EF92FF920F931F93CF93DF93182FD8
:100B0000EB011092BC0084EA8093BC000E94F9249F
:100B10007C019091BC0097FD0EC0CF3F8FEFD807AE
:100B2000C1F30E94F9248E199F098C179D0788F341
:100B30008EEF9FEF2EC09091B900987F983041F0D2
:100B40009091B900987F903119F08FEF9FEF21C0FD
:100B50001093BB0084E88093BC000E94F9248C01B0
:100B60009091BC0097FD0CC0CF3F8FEFD807C1F329
:100B70000E94F924801B910B8C179D0788F3D8CF16
:100B80008091B900887F883111F08034F1F680E0DF
:100B900090E0DF91CF911F910F91FF90EF9008951A
:100BA0000F931F93CF93DF93EB018093BB0084E8F7
:100BB0008093BC000E94F9248C019091BC0097FDA9
:100BC0000EC0CF3F8FEFD807C1F30E94F924801BDE
:100BD000910B8C179D0788F38EEF9FEF0CC020912F
:100BE000B900287F81E090E0283211F480E090E0A5
:100BF000919581959109DF91CF911F910F91089562
:100C00000F931F93CF93DF93EC0184E88093BC0094
:100C10000E94F9248C019091BC0097FD0EC0CF3F3B
:100C20008FEFD807C1F30E94F924801B910B8C171A
:100C30009D0788F38EEF9FEF03C08091BB0090E08B
:100C4000DF91CF911F910F9108950F931F93CF9331
:100C5000DF93EC0184E98093BC000E94F9248C01AD
:100C60009091BC0094FF0EC0CF3F8FEFD807C1F327
:100C70000E94F924801B910B8C179D0788F38EEF3F
:100C80009FEF02C080E090E0DF91CF911F910F9124
:100C9000089556985E9825982D9826982E9827980E
:100CA0002F988FEF90E09093890080938800909325
:100CB0008B0080938A0090938D0080938C00259AFE
:100CC0002D9A2FEF80E792E0215080409040E1F78D
:100CD00000C00000269A2E9A2FEF80E792E0215064
:100CE00080409040E1F700C00000279A2F9A2FEF34
:100CF00080E792E0215080409040E1F700C0000082
:100D000025982D982FEF80E792E021508040904069
:100D1000E1F700C0000026982E982FEF80E792E0C0
:100D2000215080409040E1F700C0000027982F98A4
:100D300056985E9825982D9826982E9827982F9843
:100D4000089589EA8093800089E080938100249847
:100D50002C983F988AB18F7C8AB96E98479A8BB14C
:100D600080638BB9769A0E9449060C944E0480E207
:100D700090E09093010180930001809143028111E2
:100D80000EC00E94730581E0809343022FEF83ED34
:100D900090E3215080409040E1F700C0000064E6FD
:100DA00070E080E40E947905909301018093000136
:100DB000892B09F050C064E670E080E00E94D00505
:100DC0009093010180930001892B09F044C064E6EF
:100DD00070E080E00E94D0059093010180930001B3
:100DE000892BC9F564E670E08FE30E94D0059093EB
:100DF000010180930001892B71F584E690E00E9447
:100E0000250664E670E080E40E9479059093010174
:100E100080930001892BF9F464E670E08CE00E9475
:100E2000D0059093010180930001892BA1F464E621
:100E300070E080E00E94D005909301018093000152
:100E4000892B49F464E670E08FE30E94D00590930B
:100E500001018093000184E690E00E9425068091C4
:100E600000010895611108C0FC018281882321F0EE
:100E70008CEA91E00E94210880E090E00895863E8F
:100E80002CE5920721F0873E9C4541F010C0FB0104
:100E90008281882369F00E94E52307C0FB018281DB
:100EA000882331F081E00E942A1180E0089581E0DA
:100EB0000895CF92DF92EF92FF926B017C010E9426
:100EC000272356985E9825982D9826982E9827982F
:100ED0002F9890E0FC013197E730F105A8F4E35A30
:100EE000FF4F0C945E32259A2D9A0EC0259A2D9AAA
:100EF000269A2E9A09C0259A2D9A04C0259A2D9AD1
:100F0000269A2E9A279A2F9AC701B601FF90EF9042
:100F1000DF90CF90089581E008950C943F07CF9320
:100F2000282F30E0F901ED51FC4FC491F901ED5942
:100F3000FB4F2491222359F081EE0E9423188C2F1D
:100F40000E9423188C2F0E94411981EE04C08C2F1F
:100F50000E9423188C2FCF910C944119FF920F936C
:100F60001F93CF93DF93EC01F62E8881882331F114
:100F70008E010F5F1F4F813031F4C9818C2F0E9489
:100F800023188C2F0AC0823029F489810E942318EB
:100F9000E80108C0833021F489810E944119F8CF0B
:100FA0000E948F0721968F2D8823F9F2EFE9FFE049
:100FB0003197F1F700C000008150F6CFDF91CF915B
:100FC0001F910F91FF90089560E00C94AE070F936E
:100FD0001F93CF93DF93EC01062FFE0184918823AA
:100FE00059F19E012F5F3F4F813041F4E901F90132
:100FF0001491812F0E942318812F0DC0823031F46B
:10100000E901F90184910E9423180AC0833031F468
:10101000E901F90184910E94411902C00E948F07E1
:101020002196802F8823C9F2EFE9FFE03197F1F78D
:1010300000C000008150F6CFDF91CF911F910F913A
:10104000089560E00C94E7070E947723811102C0A5
:101050000E94E5230E948B0D0C94A1060C94500471
:10106000282F2F7041F0822F90E02A3010F44D96F7
:1010700008950697089587E290E0089508950C94E6
:101080003E080C943F0808950E94BE1C0E9443082D
:101090002FEF84E39CE0215080409040E1F700C0B6
:1010A00000000C945525FF920F931F93CF93DF936D
:1010B0008C01FC01C081D18180919202811113C009
:1010C0008281882349F0CE010E94F421F82E682FF6
:1010D000CE010E94972104C0CE010E94C721F82EA4
:1010E000BE018F2D04C0CE010E94F421BE010E94DA
:1010F000F50AEC01B8010E948D07882309F46DC23E
:10110000B801CE010E94060E882309F466C2B80118
:10111000CE010E940916882309F45FC2CC3CFCE58D
:10112000DF0741F4F8018281882309F456C20E9446
:10113000FD0E53C2CD3C8CE5D80708F01EC1C43C5F
:101140009CE5D90761F4F8018281882309F445C23E
:101150000E9474228272E1F40E9427113EC2C53CB3
:10116000ECE5DE0708F0C7C0C531FCE5DF0798F005
:10117000C23CFCE5DF0709F48CC008F492C0F8011A
:101180008281882309F429C20E947422827221F785
:101190000E94191122C2C2308CE5D80708F452C04F
:1011A000F8018281882309F459C00E9477238111B4
:1011B00002C00E94E5230E948A2390E09093AD0331
:1011C0008093AC03FE01E350FC45E231F10530F4BD
:1011D000EC59FF4F8091AC030C945E328091AC03CC
:1011E000816027C0826025C0846023C0806121C0E7
:1011F00080621FC080641DC080681BC084608860DE
:1012000018C08E7F16C08D7F14C08B7F12C08F7E5A
:1012100010C08F7D0EC08F7B0CC08F770AC08B7F74
:10122000877F07C087FB222720F991E0922790FB58
:1012300087F98093AC038091AC030E948E230E94B7
:10124000BE1CCBC1C1159CE5D90781F0C130DC457E
:10125000A9F081E08093490280934A02C801DF919E
:10126000CF911F910F91FF900C948B07F801828111
:10127000882309F4B2C10E944408AFC1F8018281F9
:10128000882309F4AAC180913103816080933103DE
:10129000A4C1F8018281882309F49FC10E948211B0
:1012A0009CC1C631DC45A9F60E947422282FF801A2
:1012B00082814091120150911301882379F02A7A9A
:1012C00091E009F490E090934402911102C069E228
:1012D00001C065E3CA010E944C240AC08091440207
:1012E000811102C069E201C065E3CA010E9457246E
:1012F0000E94C32272C1F8018281C83CFCE5DF076D
:1013000031F4882309F469C10E94801066C1C93C88
:101310009CE5D907C8F4C63CECE5DE0731F4882328
:1013200009F45BC10E94521058C1C73CDC4530F43F
:10133000882309F452C10E942E104FC1882309F45A
:101340004CC10E94691049C1CA3C9CE5D90731F4DF
:10135000882309F442C10E94C0103FC1CB3CDC4548
:1013600030F4882309F439C10E94A01036C18823C3
:1013700009F433C10E94E80E30C1C43DFCE5DF072B
:1013800091F4F8018281882309F427C10E94DF0EBD
:10139000893128F00E94DF0E823208F4F9CE89E10B
:1013A0000E942A111AC1C53D8CE5D80708F068C013
:1013B000F8018281C03DFCE5DF0771F4882309F460
:1013C0000CC10E94DF0E893028F00E94DF0E8E30A3
:1013D00008F4DECE89E0E4CFC13D9CE5D90740F5B5
:1013E000CE3CECE5DE0771F4882309F4F6C00E94D8
:1013F000DF0E823028F00E94DF0E853008F4C8CE60
:1014000082E0CECFCF3CDC4528F4882309F4E5C048
:1014100081E0C6CF882309F4E0C00E94DF0E863049
:1014200028F00E94DF0E883008F4B2CE86E0B8CFF4
:10143000C23D9CE5D90771F4882309F4CEC00E940F
:10144000DF0E853128F00E94DF0E873108F4A0CE30
:1014500085E1A6CFC33DDC4570F4882309F4BDC007
:101460000E94DF0E8F3028F00E94DF0E843108F4D6
:101470008FCE8FE095CF882309F4AFC088E190CF5D
:10148000C83DFCE5DF0759F5F8018281882361F04A
:1014900010924A020E94F9249093480280934702D6
:1014A00080E20E94B11999C080914A02882321F0FC
:1014B00080E20E94B81991C0809147029091480241
:1014C0000E940525883C910598F780E20E94B81992
:1014D00088E20E94231888E20E9441197EC0C93D1B
:1014E0008CE5D80708F058C0F8018281C63DFCE5BC
:1014F000DF0751F5882351F0109249020E94F92428
:10150000909346028093450282E0CBCF0E947422E2
:1015100085FF05C081E08093490280934A02809153
:10152000490281110FC080914502909146020E94AC
:101530000525883C910530F486E20E94231886E256
:101540000E94411982E0B5CFC73DDC4528F48823CD
:1015500009F443C083E224CF81119ACF0E94742200
:1015600081FF05C081E08093490280934A02809107
:101570004A0281119DCF80914702909148020E94BA
:101580000525883C910508F093CF87E20E94231837
:1015900087E20E9441198CCFCC3DECE5DE0741F497
:1015A000F80182818823C9F082E00E94242A15C0B4
:1015B000CD3DFCE5DF0739F4F8018281882369F02D
:1015C0000E94E5230AC0CB3DDC4509F042CEF8017C
:1015D0008281882311F080E0E8CF80E0DF91CF9115
:1015E0001F910F91FF900895089596E0799FF00163
:1015F000112494E5899FE00DF11D1124E60FF11DE2
:10160000EE0FFF1FE551FE4F859194910895880FCD
:10161000991FFC01E951FE4F859194910895CF9354
:10162000DF930E94F50A0E94D40CEC01811520E59D
:101630009207F0F5811530E4930708F029C1883E40
:10164000910500F5803E910508F0AAC1883A910500
:1016500070F4853A910508F0A4C08130910509F431
:101660009FC108F450C1049708F09AC14CC18F3B48
:10167000910508F4A1C0803C910508F444C1805C48
:101680009109F9C0811540E2940758F4C11581E031
:10169000D80708F085C1C03FD10508F434C1D06532
:1016A0007FC1811520E3920708F0E9C09F70E3C075
:1016B000811535E5930708F044C0811544E594078A
:1016C00008F0FDC0C11582E5D80708F5C11521E570
:1016D000D20708F0E0C08C2F837021E030E002C018
:1016E000220F331F8A95E2F73C68CE0174E096958D
:1016F00087957A95E1F78370382BCF70C695C6959C
:1017000040E2C49FE0011124C22BD32B49C12C2FEE
:1017100026952695CE0183709927C115D34508F0EB
:10172000BFC040E2249F90011124C1E0D0E002C07C
:10173000CC0FDD1F8A95E2F72C2B3D2BE901DC68ED
:101740002FC181154AE59407A0F4C11589E5D80792
:1017500008F0C4C0C11526E5D20708F4B5C0C1150C
:1017600038E5D30708F4CFC0DC2FCC27C06FD06A90
:1017700017C181159B4508F4C6C0C1158CE5D80773
:1017800008F4BEC0CE0190568115904208F0BBC04F
:101790008D2F8F710E94510DDD27D0628F71D82B54
:1017A000FFC0853A910509F4B1C0863A910509F068
:1017B000B0C0C2E8D0E4F4C0883A910509F4ACC0E6
:1017C000893A910509F4ABC08A3A910509F4AAC097
:1017D0008B3A910509F4A9C08C3A910509F4A8C087
:1017E0008B3B910509F4A7C08C3B910509F4A6C079
:1017F0008D3A910509F4A5C0803B910509F4A4C078
:101800008E3A910509F4A3C08F3A910509F4A2C05C
:10181000813B910509F4A1C0823B910509F4A0C068
:10182000833B910509F49FC0843B910509F49EC058
:10183000853B910509F49DC0863B910509F49CC048
:10184000873B910509F49BC0883B910509F49AC038
:10185000893B910509F499C08D3B910509F498C025
:101860008E3B910509F497C08A3B910509F496C017
:10187000C0E0D4E495C00E94070BEC0191C0992709
:10188000D3FF03C0EC01D86C8BC0EC01D06C88C0D6
:10189000DF70D06A85C0DC2FCC27C16FD06A80C0D2
:1018A00040E2249F90011124C1E0D0E002C0CC0F9F
:1018B000DD1F8A95E2F7C22BD32BDA6871C0D82FCF
:1018C000CC27C46FD06A6CC08C2F0E94510D8F71D1
:1018D000C82FD0E0DC2FCC27D06262C08C2F8F7055
:1018E0000E94510D94E0D695C7959A95E1F7CF7077
:1018F000D0E0DC2FCC27D06A8F70806EC82B50C010
:10190000DD27D0664DC0C0E0D0E04AC0C1E8D0E4D9
:1019100047C0C3E8D0E444C0C2EED4E441C0C9EE3D
:10192000D4E43EC0CAEED4E43BC0C5EBD4E438C036
:10193000C6EBD4E435C0C3EBD4E432C0C4EBD4E48A
:101940002FC0C7EBD4E42CC0CCECD4E429C0CDEC40
:10195000D4E426C0C3E8D5E423C0CAE8D5E420C057
:10196000C2E9D5E41DC0C4E9D5E41AC0C1E2D6E499
:1019700017C0C3E2D6E414C0C4E2D6E411C0C5E285
:10198000D6E40EC0C6E2D6E40BC0C7E2D6E408C077
:10199000CFE6D4E405C0C0E7D4E402C0CAE2D6E48E
:1019A000CE01DF91CF9108958238910549F1B0F4CD
:1019B0008133910509F458C048F48932910509F43E
:1019C0004EC08A32910509F454C0089585339105BB
:1019D00009F440C08933910599F00895833E91053B
:1019E00029F138F4803E910591F0823E9105A1F0F5
:1019F0000895863E9105F9F0873E910531F10895ED
:101A00002091AC0320FD3AC021FD38C0089580919B
:101A1000AC0380FD35C032C08091AC0382FF32C080
:101A20008091AC0384FD30C083EE39C08091AC035B
:101A300082FD28C0F5CF8091AC0383FF27C0809141
:101A4000AC0384FD21C087EE2AC08091AC0383FDE6
:101A50001DC0F5CF8091AC0385FD1AC01BC08091DD
:101A6000AC0385FD17C014C08091AC0386FD14C083
:101A700015C08091AC0386FD11C00EC080EE0FC072
:101A800089E30DC082EE0BC080E009C086EE07C07E
:101A900089E205C085E303C08AE201C081E390E0EA
:101AA00008959091AC0392FF0DC0282F2871283023
:101AB00019F4877F846006C0282F2471243011F424
:101AC0008B7F886093FF0DC0282F2871283119F46F
:101AD000877E846106C0282F2471243111F48B7E07
:101AE000886194FD877E0895CF93DF93813020E84D
:101AF000920768F0FB012281222349F0EC010E9449
:101B0000A10DCE019F770E94E90D0E94D60D81E0C4
:101B1000DF91CF9108958CE090E00E941F3590E016
:101B2000A0E0B0E08093610390936203A09363030D
:101B3000B09364030895609161038CE090E00C948D
:101B400033350E94742280934B020E948722809139
:101B50006103813071F048F08230D9F08430F9F4BB
:101B600086EE0E94A91988E118C082EE0E9423180F
:101B700016C080EE0E94231881EE0E94231888E18F
:101B80000E94A91981EE0E94411980EE0E9441191C
:101B900006C082EE0E94231887E50E94A9198FE3F0
:101BA0009CE90197F1F700C000000895809161035E
:101BB000813021F038F0823029F007C08CE20E9499
:101BC000A91903C082EE0E94411980914B020C9426
:101BD00084220F931F93CF93DF938C01CCE0D0E04E
:101BE000C8010C2E02C0969587950A94E2F78F7073
:101BF0000E9430080E94A9192497CC3F8FEFD80784
:101C000079F7DF91CF911F910F9108950F931F9353
:101C1000CF93DF93EC018B01FB018281882319F1C3
:101C2000C23EFCE5DF07C1F050F4C03EECE5DE0744
:101C300081F0C13EFCE5DF07B1F481E010C0C33E96
:101C40008CE5D80759F0C43EECE5DE0761F484E08A
:101C500006C01092610305C082E001C083E080935A
:101C600061030E949B0DB801CE01DF91CF911F91BE
:101C70000F910C94740DEF92FF920F931F93CF93DB
:101C8000DF93E901662309F44BC0242F30E0EFEF26
:101C9000F0E0E61BF109B901E69F9001E79F300DE6
:101CA000F69F300D1124232F8B01031B11095CE3D8
:101CB000E52EF12CB7010E943632FB01BC01069FD4
:101CC000C001079F900D169F900D1124B7010E942F
:101CD0003632E230F105B1F040F4309779F03197C7
:101CE00011F5832F242F461B21C0E430F105A1F00C
:101CF00068F03597C1F4842F861B18C0832F262FD8
:101D0000230F14C0862F830FE42F03C0E42FE61B9C
:101D1000842F432F2E2F0AC0842F462F430F06C037
:101D2000842F242F03C080E020E040E0E42FF0E087
:101D3000E150FB4F4491E22FF0E0E150FB4F9491D2
:101D4000E82FF0E0E150FB4FE49149839883EA8368
:101D5000DF91CF911F910F91FF90EF90089588E050
:101D600090E00C942735CF92DF92EF92FF926B01B7
:101D70007C010E94AF0E6C157D058E059F0551F00C
:101D8000B701A60188E090E0FF90EF90DF90CF9040
:101D90000C944535FF90EF90DF90CF900895E5E6E5
:101DA000F3E083E08083109266038FEF8283838366
:101DB000148260817181828193810C94B30E809131
:101DC000650380FF03C086958F73089580E00895B2
:101DD0008091690390E001968430910514F083E0CE
:101DE00090E0809369036091650370916603809130
:101DF0006703909168030C94B30E8091690390E09F
:101E0000019797FF02C080E090E08430910514F0C4
:101E100083E090E0809369036091650370916603AD
:101E200080916703909168030C94B30E80916503D1
:101E300080FF06C06FE070E08AE693E00C943E15E8
:101E400080E090E0FC01E659FC4F11821082128282
:101E500004968C339105B1F7EDCF9091650390FF17
:101E60000FC020E030E0F901E659FC4F8183608328
:101E700042832C5F3F4F2C333105A9F70C94160F8A
:101E80000895CF93DF9300D000D0CDB7DEB7209177
:101E9000650320FF0AC09E012F5F3F4F0E943B0E4B
:101EA0004B8169818A810E942D0F0F900F900F90B6
:101EB0000F90DF91CF9108955F926F927F928F92F2
:101EC0009F92AF92BF92CF92DF92EF92FF920F93C9
:101ED0001F93CF93DF9300D000D0CDB7DEB78C0136
:101EE000E62EF42E522E8091650380FF89C0982F34
:101EF0009E77923061F49E012F5F3F4FC8010E9490
:101F00003B0E4B8169818A810E942D0F59C0E82FB9
:101F1000E695EF739EE39E0F9F73943018F4F09054
:101F200068034EC09AE39E0F9F73993068F4881F30
:101F30008827881F90916603292F220F022F082BD4
:101F400097FB112710F93CC087E28E0F8F738A3000
:101F5000B8F5F0E07997E0FD02C021E001C02FEF75
:101F6000EE7FEB50FB4F859194916FE070E00E9403
:101F7000363226034001279F900C1124580188E92E
:101F8000A81A8EEFB80A8AE6C82E83E0D82E98E603
:101F9000692E77247394C501B3010E9436329601ED
:101FA0004F2D6E2D0E943B0EA80CB91C84E0C80E6C
:101FB000D11C86EAC81683E0D80669F70E94160F7E
:101FC0008091650300FB87F980936503902F9695B8
:101FD000809166038078892B10FB87F980936603D4
:101FE000E0926703F0926803552051F06091650319
:101FF0007091660380916703909168030E94B30E0D
:102000000F900F900F900F90DF91CF911F910F9134
:10201000FF90EF90DF90CF90BF90AF909F908F9008
:102020007F906F905F900895282FE5E6F3E0908110
:10203000991F9927991F30916603832F880F482F86
:10204000492B37FB552750F9CA010C9668E671E019
:102050000E944A32438162810C945C0F81E00C94AF
:102060001410282F90916503991F9927991F30917B
:102070006603832F880F482F492B37FB552750F9CC
:10208000CA014C3051051CF4845A9E4F01C00C9774
:1020900068E671E00E944A324091680360916703EC
:1020A0000C945C0F81E00C943110E5E6F3E0308194
:1020B000331F3327331F90916603592F550F97FB1A
:1020C000992790F9282F43816FEF852F832B0C944C
:1020D0005C0F81E00C945510E5E6F3E03081331F8E
:1020E0003327331F90916603592F550F97FB99277C
:1020F00090F9282F438160E0852F832B0C945C0F8F
:1021000081E00C946C1040916803242F30E0243F50
:10211000310514F4445F01C04FEF30916503331F64
:102120003327331F90916603592F550F97FB99273B
:1021300090F9282F60916703852F832B0C945C0FF7
:1021400081E00C94831040916803242F30E02C3000
:10215000310514F04C5001C040E030916503331F4D
:102160003327331F90916603592F550F97FB9927FB
:1021700090F9282F60916703852F832B0C945C0FB7
:1021800081E00C94A31020E00C945C0FCF9390910D
:10219000650390FF40C09178811102C0926007C032
:1021A000853210F0986403C08F73880F982B90933A
:1021B0006503662351F06091650370916603809119
:1021C0006703909168030E94B30EC09165036C2F62
:1021D00066956F7370E04BE050E084E091E00E9400
:1021E0006432892B19F01092690203C081E0809358
:1021F0006902CC1FCC27CC1F90916603892F880FD2
:1022000097FB992790F940916803609167038C2BA5
:10221000CF910C94C310CF910895682F90916503CE
:1022200096959F7381E0890F853208F081E00C94C8
:10223000C61081E00C940D11682F9091650396955E
:102240009F738FEF890F09F484E20C94C61081E02C
:102250000C941C1161E00C94C610E5E6F3E080815B
:102260008160808386958F730C942A1160E00C94B2
:10227000C610809131038160809331030E947723DF
:10228000811104C00E94E5230E94CF0E0E94AF0E70
:10229000609365037093660380936703909368036C
:1022A0006E7761F40E94CF0E0E94AF0E60936503BB
:1022B00070936603809367039093680381E0809333
:1022C00069028091650380FF04C086958F730C942A
:1022D00036110895E5E6F3E080818E7F808360818A
:1022E0007181828193810E94B30E109269022FEF57
:1022F00080E792E0215080409040E1F700C000006C
:102300000C94160F8091650380FD0C946A110C9457
:102310002D11CF93C82F80916702909168020E947F
:102320000525EC2FF0E0EF50FB4FE491F0E08E1725
:102330009F0708F443C00E94F92490936802809399
:1023400067026091660270E080E090E00E943730A2
:1023500020E030E04FE753E40E945A2F2BED3FE09E
:1023600049E450E40E9460310E94CD310E94D42F94
:102370002BE43AE34EE25FE30E94ED2E20EF3BEFC9
:1023800048ED52E40E9460310E940630462F809151
:102390006503881F8827881F90916603292F220FC5
:1023A00097FB992790F960916703822B0E94410F58
:1023B0008091660290E0019680936602CF91089525
:1023C000CF93C82F80916402909165020E940525E9
:1023D000EC2FF0E0E251FB4FE491F0E08E179F0705
:1023E000E8F00E94F9249093650280936402409182
:1023F00068036091670380916202909163020E947A
:10240000410F8091620290916302019668E671E04B
:102410000E9436329093630280936202CF910895B6
:10242000CF92DF92FF920F931F93CF93DF93F82EFB
:1024300080916002909161020E940525EF2DE69542
:10244000F0E0E551FB4FE491F0E08E179F07E8F1D3
:102450000E94F92490936102809360020AE613E0DF
:10246000C0E0D0E088E6C82EDD24D39480915E02DF
:1024700090915F028C0F9D1FB6010E943632980129
:1024800040916803609167030E943B0E68960C5F61
:102490001F4FC83681E0D80749F70E94160F2091D8
:1024A0005E0230915F02F0FE0AC0C9010196BE01D2
:1024B0000E94363290935F0280935E0206C02150E4
:1024C000310930935F0220935E02DF91CF911F911B
:1024D0000F91FF90DF90CF900895AF92BF92CF926F
:1024E000DF92EF92FF920F931F93CF93DF93C82F4A
:1024F00080FF02C01FEF01C011E080915C0290914B
:102500005D020E940525C695EC2FF0E0E851FB4FD7
:10251000E491F0E08E179F0708F466C00E94F9244A
:1025200090935D0280935C022AE6C22E23E0D22EB5
:102530003CE6E32E33E0F32EC0E0D0E0F701319724
:102540001082F6011082F701108294E0A92EB12CBE
:1025500000E080915B02800F87FD815F082E000CF8
:10256000990BC817D907E9F4809168038A9DA001E7
:102570008B9D500D11245595479555954795809104
:102580006503881F8827881F90916603592F550F70
:1025900097FB992790F9960160916703852B0E941C
:1025A0003B0E010FF1E0AF1AB10899F6219684E0D5
:1025B000C80ED11CE4E0EE0EF11CCF30D10509F0BD
:1025C000BDCF0E94160F80915B02113031F4811152
:1025D00002C08EE007C0815005C090E00196BE01A8
:1025E0000E944A3280935B02DF91CF911F910F913D
:1025F000FF90EF90DF90CF90BF90AF9008950F9332
:102600001F93CF93DF93C82F8091590290915A0264
:102610000E940525EC2FF0E0EB51FB4FE491F0E038
:102620008E179F0708F464C00E94F92490935A0201
:102630008093590280E090E0FC01E659FC4F118242
:102640001082128204968C339105B1F7C0E0D0E07D
:102650000FE010E0CE01B8010E944A32FC018091E7
:102660005802082E000C990BEE0FFF1FEE0FFF1FF4
:10267000C817D907FCF080910301082E000C990BB4
:102680008C179D07BCF09F0126593C4F8091650334
:10269000881F8827881F90916603592F550F97FB35
:1026A000992790F94091680360916703852B0E94F8
:1026B0003B0E05C0E659FC4F118210821282219612
:1026C000CF30D10539F60E94160F8091020190910A
:1026D0005802980F9093580220910301280F2093DD
:1026E0000301121614F49E301CF0819580930201B0
:1026F000DF91CF911F910F910895EF92FF920F9369
:102700001F93CF93DF9380915602909157020E94BE
:102710000525883E9340D0F10E94F92490935702FA
:1027200080935602C0915402D09155022196C170F7
:10273000DD27D0935502C09354028AE6E82E83E049
:10274000F82E10E008E7812F8695FE01E80FF11DB5
:10275000CF018170992797014091680360916703C9
:10276000FC010E9FC0010F9F900D11240E943B0E93
:102770001F5FF4E0EF0EF11C1F3029F7DF91CF91BE
:102780001F910F91FF90EF900C94160FDF91CF9156
:102790001F910F91FF90EF900895CF93DF9300D09A
:1027A00000D0CDB7DEB780915202909153020E94C3
:1027B0000525E3EEF4E02591349182179307C0F1EB
:1027C0008091510281110CC09E012F5F3F4F4FEF4E
:1027D0006FEF80E090E00E943B0E8A81809351026F
:1027E0000E94F924909353028093520280915002E8
:1027F000813051F028F0823061F4409151020AC0DA
:102800008091510240E007C06091510240E080E0B9
:1028100003C040E080E060E00E942D0F80915002F4
:1028200090E0019663E070E00E944A32809350028B
:102830000F900F900F900F90DF91CF9108950F930D
:102840001F93CF93DF9380914E0290914F020E948D
:102850000525843F914008F448C00E94F9249093D4
:102860004F0280934E02CAE6D3E000E010E02091D0
:102870004C0230914D0280916503909166030730C0
:1028800011051CF4232B79F002C0232B61F4881F5F
:102890008827881F592F550F97FB992790F99E017C
:1028A000409168030AC0881F8827881F592F550F39
:1028B00097FB992790F99E0140E060916703852B73
:1028C0000E943B0E0F5F1F4F24960F30110579F6C3
:1028D0000E94160F80914C0290914D0201968170DA
:1028E000992790934D0280934C02DF91CF911F91D5
:1028F0000F910895809169028823D9F19091650321
:10290000892F86958F732EE3280F2F73243018F4A8
:1029100082500C9489112AE3280F2F73233018F466
:1029200086500C94E01127E3280F2F73263018F4FB
:1029300089500C94101221E3280F2F73263018F4BD
:102940008F500C946D122BE2280F2F73233018F444
:1029500085510C94FF12892F8E77803311F40C94DB
:102960007D13863411F40C94CD13883411F40C9437
:102970001F140895882319F05198599A02C0519A4A
:1029800059985098589A95E09A95F1F70000509A06
:10299000589895E09A95F1F70000882311F0519A24
:1029A000599885E08A95F1F7000008958BB18C7FE6
:1029B0008BB95098589A5198599A85E08A95F1F7B1
:1029C000000008958AB18C7F8AB985E08A95F1F775
:1029D0000000519A599885E08A95F1F70000509AC5
:1029E000589885E08A95F1F7000008955098589A14
:1029F00085E08A95F1F700005198599A85E08A950B
:102A0000F1F700000895CF93DF93D82FC8E08D2F02
:102A100080780E94BA14DD0FC150C9F780E00E948F
:102A2000BA1485E08A95F1F7000085E08A95F1F700
:102A3000000080E0DF91CF9108952BB1342F3095C5
:102A400023233BB1432B3FB7F894FC01680F791F58
:102A5000E617F70789F0819198E04BB9000000C0B4
:102A600087FF2BB9880F000000C000C000C02BB941
:102A700000C09A9591F7ECCF3FBF0895AF92BF92F7
:102A8000CF92DF92EF92FF920F931F93CF93DF933A
:102A90008C01EB01CFB6D090BC00F8948091BC00C3
:102AA0008B7F8093BC000E94D6140E94E21484E8BD
:102AB0000E940315CC0FDD1FCC0FDD1F78015801DC
:102AC000AC0EBD1EEA14FB0431F0F70181917F01C9
:102AD0000E940315F7CF0E94F614CFBED092BC001F
:102AE000579A40E8BE01C801DF91CF911F910F9125
:102AF000FF90EF90DF90CF90BF90AF900C941D159A
:102B00000F931F93CF93DF93CDB7DEB728970FB600
:102B1000F894DEBF0FBECDBF809111018F938091DD
:102B200010018F938CEC91E09F938F931F9288E01C
:102B30008F938E010F5F1F4F1F930F930E9471326F
:102B4000C8010E94E4070FB6F894DEBF0FBECDBFE8
:102B500028960FB6F894DEBF0FBECDBFDF91CF91A0
:102B60001F910F910895CF93DF93EC010E94F924F8
:102B700090936E0280936D02D0936C02C0936B02AF
:102B8000DF91CF910895CF93DF9380916B02909165
:102B90006C02892B59F180916D0290916E020E9416
:102BA0000525EC0180911001909111018C179D0772
:102BB00018F481EE0E94231880916B020E94231862
:102BC00080916B020E944119809110019091110136
:102BD0008C179D0718F481EE0E94411910926E0225
:102BE00010926D0210926C0210926B02DF91CF91E5
:102BF000089510920F010C94C31580910F01882342
:102C000021F010920F010C94C31581E080930F0105
:102C100008951F93CF93DF93EC01FB0112811123E1
:102C200009F45BC08436910509F444C078F48B3212
:102C3000910509F43FC028F40497849708F04AC02E
:102C400039C08D970C9708F045C034C089319C4538
:102C500039F1CA318CE5D80768F4C731ECE5DE07F5
:102C6000A1F0C831DC45B1F58091100190911101BE
:102C7000059710C0CB318CE5D807C1F0A0F0CC315E
:102C8000DC4541F50E94F91509C080911001909131
:102C900011010596909311018093100110E020C05E
:102CA0000E948015FBCF0E94FD15F8CF81E0809334
:102CB0000F01F4CF0E94C31580910F01882381F08A
:102CC0000E94742280936A0281110AC0CE010E9480
:102CD000B315E4CF0E94C31503C00E94C31511E0D1
:102CE000812FDF91CF911F9108959093740280936B
:102CF00073020895E0917302F0917402309721F00D
:102D00000190F081E02D099480E00895E091730234
:102D1000F0917402309799F020912301222359F009
:102D20002091AC0327FF07C0DC012C9111962C9356
:102D3000119725E02C930280F381E02D09940895EA
:102D4000E0917302F0917402309739F022E0DC01D7
:102D50002C930480F581E02D09940895209171024F
:102D6000309172028217930771F0909372028093F0
:102D70007102E0917302F0917402309721F00680A5
:102D8000F781E02D0994089520916F02309170022F
:102D90008217930771F09093700280936F02E09115
:102DA0007302F0917402309721F00084F185E02DD8
:102DB0000994089585B7806885BF85B7806885BF09
:102DC000089508950E94DA160C94E11681E00895A2
:102DD0000E94F0240E9452040E9487250C9439110D
:102DE000CF92DF92EF92FF920F931F93CF93DF93D7
:102DF000CDB7DEB72B970FB6F894DEBF0FBECDBFB1
:102E00000E9424050E94E616811111C08FEF89836C
:102E10008A831B820E94F9248160782F9D838C8392
:102E200049815A816B818D810E94D41756C086E7F3
:102E3000C82E82E0D82E00E010E0E02E802F0E9405
:102E40006C05F60141916F01F42EF82631F40F5F05
:102E50001F4F0E30110589F7D9CF9091310391FFA3
:102E600004C08B870E9472058B8520E030E04F2DD7
:102E700050E0922FBA01022E02C0759567950A9410
:102E8000E2F760FF24C02E83EF8221E030E0690189
:102E900002C0CC0CDD1C9A95E2F790E08C219D21BC
:102EA000892B09F420E028870E94F9248160782F7B
:102EB0009A8789874E815F8168858A850E94D417A9
:102EC000F801EA58FD4F8081C826C08206C02F5FF6
:102ED0003F4F2630310569F6BACF0E941A2710916C
:102EE00075020E947A161817A1F00E947A16809334
:102EF00075022B960FB6F894DEBF0FBECDBFDF91E3
:102F0000CF911F910F91FF90EF90DF90CF900C9495
:102F100041082B960FB6F894DEBF0FBECDBFDF91F0
:102F2000CF911F910F91FF90EF90DF90CF90089578
:102F3000DC0111962C9111978C91682F70E041E083
:102F400050E001C0440F8A95EAF712968C911297CF
:102F500030E0882329F0809194028823E9F006C0AC
:102F6000F901EC57FD4F90819423B1F086E0829FE8
:102F7000F001839FF00D1124E60FF71FEE0FFF1FE6
:102F8000EC5DFE4F808191818D939C93F901EC570C
:102F9000FD4F8081482B06C0F901EC57FD4F40954D
:102FA0008081482340830895CF93DF93CDB7DEB768
:102FB0002B970FB6F894DEBF0FBECDBF942F4F8373
:102FC000252F588769877A878B874A855B85452BAC
:102FD00021F02F3F09F59F3FF9F4DE01119686E0BD
:102FE000FD0111928A95E9F785E0FE01379601907F
:102FF0000D928A95E1F749815A816B817C818D819F
:103000009E810E94681F2B960FB6F894DEBF0FBEFC
:10301000CDBFDF91CF910895CE0107960E949817FA
:10302000DCCFFC01808191810E94352292959F70B6
:10303000963041F48091940291E089278093940224
:10304000909393020895882309F41AC18238C1F439
:103050000E947A1681FD14C169E38091120190915A
:1030600013010E944C240E94C3222FEF81EE94E0B2
:10307000215080409040E1F700C0000069E319C092
:103080008338F9F40E947A1680FDFAC063E58091D6
:103090001201909113010E944C240E94C3222FEF31
:1030A00081EE94E0215080409040E1F700C00000A4
:1030B00063E580911201909113010E9457240C94B2
:1030C000C3228438C1F40E947A1682FDD9C067E415
:1030D00080911201909113010E944C240E94C322FE
:1030E0002FEF81EE94E0215080409040E1F700C046
:1030F000000067E4DECF9CEF980F913A40F4682F10
:1031000080911201909113010E944C24D8CF90E23B
:10311000980F983050F4877091E001C0990F8A950C
:10312000EAF7892F0E947722CACF9BE5980F933048
:1031300070F4853A29F0863A31F083E890E005C0D2
:1031400081E890E002C082E890E00C94AE1698E529
:10315000980F973108F08EC0883A09F445C0893A33
:1031600009F445C08A3A09F445C08B3A09F445C0D0
:103170008C3A09F445C08B3B09F445C08C3B09F4FB
:1031800045C08D3A09F445C0803B09F445C08E3AEC
:1031900009F445C08F3A09F445C0813B09F445C0A4
:1031A000823B09F445C0833B09F445C0843B09F4E4
:1031B00045C0853B09F445C0863B09F445C0873BC3
:1031C00009F445C0883B09F445C0893B09F445C072
:1031D0008D3B09F445C08E3B09F445C08A3B09F498
:1031E00045C080E090E044C082EE90E041C089EEAE
:1031F00090E03EC08AEE90E03BC085EB90E038C0A6
:1032000086EB90E035C083EB90E032C084EB90E039
:103210002FC087EB90E02CC08CEC90E029C08DECA7
:1032200090E026C083E891E023C08AE891E020C0C6
:1032300082E991E01DC084E991E01AC081E292E048
:1032400017C083E292E014C084E292E011C085E2EC
:1032500092E00EC086E292E00BC087E292E008C0E6
:103260008FE690E005C080E790E002C08AE292E03D
:103270000C94C416803F20F00E9422260C940F2745
:103280000895882309F464C0823879F40E947A167C
:1032900081FF5EC069E380911201909113010E9449
:1032A0004C240E94C32269E310C08338B1F40E9409
:1032B0007A1680FF4DC063E5809112019091130151
:1032C0000E944C240E94C32263E5809112019091D8
:1032D00013010E9457240C94C322843879F40E946D
:1032E0007A1682FF35C067E4809112019091130134
:1032F0000E944C240E94C32267E4E7CF9CEF980F02
:10330000913A10F4682FE1CF90E2980F983050F482
:10331000877091E001C0990F8A95EAF7892F0E9482
:103320007D22D9CF9BE5980F933020F480E090E088
:103330000C94AE1698E5980F973120F480E090E059
:103340000C94C416803F20F00E948A260C940F270C
:103350000895CF93C82F0E9423188C2FCF910C94DF
:103360004119882321F00E9477220C94C3220895EA
:10337000882321F00E947D220C94C32208958F920D
:103380009F92AF92BF92DF92EF92FF920F931F93A3
:10339000CF93DF937C01D62FC72FFC0105810295C7
:1033A0000F70128111110E9497220E946D228823B2
:1033B00079F0112369F080E28D0F883048F082E0C7
:1033C0000E940E230E946D2291E0D82ED92601C0C2
:1033D000D12CAC2EA2948FE0A822B12CF501EA5892
:1033E000FF4F0C945E328C2F807FCF70882311F0BA
:1033F000C295C07F112399F0CC2309F4C8C180E2A3
:103400008D0F883010F0D11104C08C2F0E947722CC
:1034100003C08C2F0E948A220E94C322B8C18D2F24
:103420000E944119CC2309F42EC280E28D0F88300E
:1034300010F0D11104C08C2F0E947D2203C08C2F6C
:103440000E9490220E94C3221EC28C2F807FCF70C8
:10345000803211F0C295C07FDD2319F0D130C9F060
:1034600021C0112371F0002341F0013031F40E949A
:10347000AA228C2B0E94B02206C20E94AA228C2B68
:103480003FC1002319F0013009F4FDC10E94B922A7
:1034900011C0112321F0023008F0F5C107C001115D
:1034A000F2C108C0112321F0011171C18C2F28C174
:1034B00001117EC18C2F2AC18C2F86958695837031
:1034C00090E0009719F0019761F0DDC1112321F020
:1034D0008D2F9C2F937002C080E090E00E94AE166A
:1034E000E2C1112321F08D2F9C2F937002C080E048
:1034F00090E00E94C416D7C11123F9F0D53F51F0D6
:10350000D63F71F0D43FA9F48091A6039091A70310
:1035100081600BC08091A6039091A703826005C0D3
:103520008091A6039091A70384609093A703809352
:10353000A6038D2F0E9422261EC0D53F51F0D63FF4
:1035400071F0D43FA9F48091A6039091A7038E7FD8
:103550000BC08091A6039091A7038D7F05C0809139
:10356000A6039091A7038B7F9093A7038093A60354
:103570008D2F0E948A260E940F2795C18C2F837061
:1035800009F050C011118BC18D2F829586958770DF
:10359000880F880F9D2F9F70892E912CA12CB12C04
:1035A000082E04C0880C991CAA1CBB1C0A94D2F7D4
:1035B000D4FF14C00FE010E020E030E0B901A80112
:1035C00004C0440F551F661F771F8A95D2F7CB01A1
:1035D000BA01609570958095909503C060E070E0A9
:1035E000CB01C695C695C370D0E0C230D10561F05D
:1035F000C330D10581F0682979298A299B2921972F
:1036000071F00E94AD204BC1682979298A299B2934
:103610000E94BF2044C10E94AD20C501B4010E9498
:103620009B203DC1112319F08C2F817001C086951C
:10363000882309F434C18D2F829586958770880F71
:10364000880F9D2F9F70892E912CA12CB12C082EB4
:1036500004C0880C991CAA1CBB1C0A94D2F7D4FF86
:1036600014C00FE010E020E030E0B901A80104C070
:10367000440F551F661F771F8A95D2F7CB01BA01F9
:10368000609570958095909503C060E070E0CB01E7
:10369000C695C695C3704C2F50E04230510569F075
:1036A0004330510589F0682979298A299B294130BD
:1036B000510571F00E947221F2C0682979298A2986
:1036C0009B290E948421EBC00E947221C501B40194
:1036D0000E946021E4C08D2F90E0FC01E05EF109C2
:1036E000E531F10508F04FC0EA57FF4F0C945E3208
:1036F000DF708C2F8F71112331F00E94F9208D2FF4
:103700000E94B119C0C00E941A218D2F0E94B819C1
:10371000BAC0112339F00111B6C08C2F8F710E94ED
:103720003F21B1C0023008F0AEC0F7CF112339F00D
:103730008C2F8F710E94F920A6C01123C9F38C2F02
:103740008F710E941A219FC0112329F08C2F8F7135
:103750000E94E42098C00E94DF2095C0112349F008
:10376000CF718C2F0E94F92063E08C2F0E94F922E8
:103770008AC081E00E940E23023008F484C082E0F7
:103780000E940E2380C0112331F0002389F28D2F77
:103790000E94231878C0002391F2D93349F45FEFD7
:1037A00067EE73E0515060407040E1F700C00000E8
:1037B0008D2F0E94411967C04C2F4F706D2FC7018C
:1037C0000E9432070E940C206EC0D23FB1F028F454
:1037D000D03F49F0D13FF9F028C0D43FB9F058F0BC
:1037E000D53F71F022C0112309F447C09091940293
:1037F00081E0892708C081E01827109394023DC01A
:1038000011113BC081E08093940237C0111135C083
:103810001092940232C0112329F0809193028823E0
:1038200029F329C0002311F328C0809193020023BB
:10383000C1F0882341F09091940281E08927809320
:103840009402109293028D2F112319F00E942318D5
:1038500014C00E94411986E0F70111928A95E9F798
:103860000CC0882351F0111108C09091940281E09E
:10387000892780939402109293024C2F4F706D2FE2
:10388000C7010E94F40AF8E0AF16B10441F05CF001
:103890004AE0A41AB10852E0A516B10420F40E942F
:1038A0007A160E944108DD20E1F00E94692280FD25
:1038B00018C0F70112820E9463220E94F920C701FA
:1038C0000E947D1C0E946322DF91CF911F910F9176
:1038D000FF90EF90DF90BF90AF909F908F900C94EF
:1038E0001A21DF91CF911F910F91FF90EF90DF9000
:1038F000BF90AF909F908F9008950F931F93CF9399
:10390000DF93EC01888199812B813C81232BB9F0D5
:103910009F3F11F48F3F99F0CE010E9453088823F6
:1039200071F0688179818A810E9440228C010E9415
:1039300096210E949820B801CE010E94BF19DF9104
:10394000CF911F910F9108950E9497220E94A72264
:103950000E94C3220E94B5270E940F2780E090E0BA
:103960000E94AE1680E090E00C94C4168091120183
:10397000909113010E9462240C94A41C0E9487223F
:103980000C94B61CE92FE295EF70F0E03297EE3020
:10399000F105B0F4E556FF4F0C945E32803F91F094
:1039A00018F4803E68F40EC0843F51F40BC0803E92
:1039B00048F0813F29F406C093FB882780F90895D9
:1039C00080E0089581E008950E9435220E94C21C83
:1039D0000895CF93DF9300D000D01F92CDB7DEB70C
:1039E0000F900F900F900F900F90DF91CF9108954F
:1039F000CF93DF9300D000D000D0CDB7DEB72696AE
:103A00000FB6F894DEBF0FBECDBFDF91CF91089502
:103A10001F93CF93DF93C091950216E08091960299
:103A2000C81799F0D0E01C9FF0011D9FF00D1124E4
:103A3000E956FD4F40815181628173818481958176
:103A40000E94F81C2196C770E9CFDF91CF911F919A
:103A500008954091C7025091C8026091C9027091C7
:103A6000CA028091CB029091CC020C94F81C8091F8
:103A7000CC0282958F7009F054C08091C9028823CE
:103A800009F44FC080919502A09196026091C702FF
:103A90007091C8024091CA025091CB02B6E08A17D9
:103AA00009F43FC090E041155105C1F17F3F11F489
:103AB0006F3FA1F1B89FF001B99FF00D1124E956B5
:103AC000FD4F218172132AC02081621327C02281F9
:103AD000211124C0238134812417350710F421508B
:103AE0003109241B350B283C3105C0F42091CC0250
:103AF0002F7020612093CC0226E0289FF001299F9F
:103B0000F00D1124E456FD4F80818F708061808319
:103B100087EC92E00E947D1C0C94081D0196877032
:103B2000BECF0895CF92DF92EF92FF920F931F9333
:103B3000CF93DF93CDB7DEB762970FB6F894DEBFB1
:103B40000FBECDBF8C0185E0F801DE011D9601900E
:103B50000D928A95E1F7D8014C9111965C911197DD
:103B600012966C9112971396CD90DC901497309129
:103B7000C7027091C8028091CA029091CB0200974F
:103B800009F46BC17F3F19F43F3F09F466C1E0902F
:103B9000C902EE2009F4C0C02091CC02C816D90693
:103BA00028F0F601E81BF90BCF0104C08095909531
:103BB0008C0D9D1DFF24F394883C910578F0F12C29
:103BC000207F09F0C6C07C2DD98AC88A89890E94C5
:103BD000E91C87EC92E00E947D1CB1C0822F807F9F
:103BE00009F046C0751314C0341312C0611110C01F
:103BF0002F7020612093CC020E94291D87EC92E057
:103C00000E947D1C8091CC02D80115968C932EC009
:103C1000CD2819F15F3F11F44F3FF9F0F62E6111F5
:103C20001CC0809195022091960236E0821709F41B
:103C30005AC090E0389FF001399FF00D1124E956E9
:103C4000FD4F7181571306C07081471303C0728105
:103C5000711103C001968770E9CFF62E662309F42F
:103C600027C18091CC0281608093CC02F12C20C1CD
:103C7000751308C0341306C0611104C08091CC02D2
:103C8000D801C3C04D875E878D859E856A8B0E9453
:103C9000E41C6A898823E1F16623D1F12091CC02EA
:103CA000822F82958F7090E0029774F08091C70206
:103CB0009091C80298878F831986DB86CA862C87E5
:103CC000CE0107960E947D1C86E0F801A7ECB2E0C9
:103CD00001900D928A95E1F70E94371D0E94291DDF
:103CE000FF24F394E5C04D875E878D859E850E94F5
:103CF0003522292F22952F7030E0223031050CF02B
:103D0000CBC09F7009F0C5C0805E883008F4D0C079
:103D1000C8010E947D1CE4CFC816D90608F453C020
:103D2000F601E81BF90BCF01883C910508F450C05F
:103D3000F12C7C2DD98AC88A89890E94E91CE7EC7C
:103D4000F2E086E0DF011D928A95E9F70E94291DC5
:103D5000AFC0751314C0341312C0611110C080912C
:103D6000CC02F8018583C8010E947D1C86E0E7EC47
:103D7000F2E0DF011D928A95E9F7FE2C99C04D878C
:103D80005E878D859E856A8B0E94E41C6A898823E4
:103D900009F4BECF662309F4BBCF2091CC02822F59
:103DA00082958F7090E002970CF48ECF8091C702BD
:103DB0009091C8029A8389831B82DD82CC822E83F4
:103DC000CE0101967FCF809590958C0D9D1DACCF37
:103DD000F62E662309F49CCF75132EC034132CC025
:103DE0002091CC0220FD1FC0822F82958F70D9F0C8
:103DF000D80115962C9315978F3049F08F5F982F27
:103E00009295907F822F8F70892B15968C93C80185
:103E10000E947D1C86E0F801A7ECB2E001900D92B3
:103E20008A95E1F793CF86E0F801A7ECB2E0019024
:103E30000D928A95E1F73CC04D875E878D859E8502
:103E40000E94E41C811140CF8091CC02816080935C
:103E5000CC02C8010E947D1C2BC0662309F458CFF8
:103E60004D875E878D859E850E94E41CF82E8823F1
:103E700009F44ECF86E0F801A7ECB2E001900D9274
:103E80008A95E1F787EC92E00E9411180E94371D95
:103E90005DCF811139CF0CC0243031050CF038CF03
:103EA0009F7009F431CFF8019581907F09F02CCFF4
:103EB0008F2D62960FB6F894DEBF0FBECDBFDF9197
:103EC000CF911F910F91FF90EF90DF90CF900895C9
:103ED0001F93CF93DF93CDB7DEB72C970FB6F8942F
:103EE000DEBF0FBECDBF4F83588769877A878B8728
:103EF0009C87CE0107960E94921D882369F08F81CE
:103F000098852A853B85232BF1F19F3F09F063C0FB
:103F10008F3F09F060C037C086E0FE013796DE01B2
:103F2000119601900D928A95E1F76F817885EA8567
:103F3000FB85309741F17F3F11F46F3F21F12091D4
:103F4000960230E0C9010196877099274091950249
:103F500050E08417950709F447C069837A83FD838D
:103F6000EC8396E0929FD001939FB00D1124A95647
:103F7000BD4FFE01319601900D929A95E1F7809325
:103F800096020E94081D16E080919502909196027B
:103F90008917C1F1189FC001112489569D4F0E94B5
:103FA000921D882379F1E09195021E9FF001112462
:103FB000E956FD4F408151816281738184819581F1
:103FC0000E94F81C8091950290E0019687709927D5
:103FD00080939502D9CF4F81588569857A858B85E5
:103FE0009C850E94F81CCFCF0E94BE1C10929602A6
:103FF00010929502E7ECF2E086E0DF011D928A95CF
:10400000E9F7C1CF2C960FB6F894DEBF0FBECDBF37
:10401000DF91CF911F910895EF92FF920F931F931D
:10402000CF93DF938C01892B09F46CC0F12CEE2423
:10403000E394E8012196F8018491843740F48430B8
:1040400008F051C0813081F0823019F15BC08537B2
:1040500009F444C0A8F19CE7980F903708F052C0CB
:104060008F770E94411941C00E5F1F4FFE01C4911E
:1040700080E28C0F883048F4C7708E2D01C0880F05
:10408000CA95EAF70E949A2214C08C2F0E94231826
:104090002DC00E5F1F4FFE01C49180E28C0F88304F
:1040A00058F4C7708E2D01C0880FCA95EAF70E9498
:1040B000A0220E94C3221AC08C2F0E94411916C050
:1040C0000E5F1F4FFE01C491CC2381F08FE99FE06A
:1040D0000197F1F700C00000C150F6CF0E5F1F4FEF
:1040E000FE01F49003C00E9423188E018F2D8823B7
:1040F00009F49FCFEFE9FFE03197F1F700C000002E
:104100008150F5CFDF91CF911F910F91FF90EF90EC
:10411000089508950C9489200E948A2060930803D2
:104120007093090380930A0390930B030C94A41CCF
:1041300008950C948C200F931F9300910803109105
:10414000090320910A0330910B03602B712B822B02
:10415000932B1F910F910C948C200F931F93009120
:1041600008031091090320910A0330910B03602387
:104170007123822393231F910F910C948C200F9312
:104180001F93009108031091090320910A033091B5
:104190000B0360277127822793271F910F910C949F
:1041A0008C200C9459070E94D120609304037093D3
:1041B000050380930603909307030C94A41C60E00E
:1041C00070E0CB010C94D3200F931F9341E050E09B
:1041D00060E070E08A019B0104C0000F111F221FE4
:1041E000331F8A95D2F7C901B8011F910F910C9422
:1041F000D3200F931F9341E050E060E070E004C0D3
:10420000440F551F661F771F8A95D2F780910403CC
:1042100090910503A0910603B09107038A019B01C9
:10422000082B192B2A2B3B2BC901B8011F910F9189
:104230000C94D3200F931F9341E050E060E070E0B6
:1042400004C0440F551F661F771F8A95D2F740950B
:104250005095609570958091040390910503A0910D
:104260000603B09107038A019B01082319232A231F
:104270003B23C901B8011F910F910C94D3200F93D8
:104280001F9341E050E060E070E004C0440F551F10
:10429000661F771F8A95D2F78091040390910503DA
:1042A000A0910603B09107038A019B0108271927F3
:1042B0002A273B27C901B8011F910F910C94D320E5
:1042C0000F931F930091040310910503209106039F
:1042D00030910703602B712B822B932B1F910F9131
:1042E0000C94D3200F931F930091040310910503A6
:1042F00020910603309107036023712382239323C7
:104300001F910F910C94D3200F931F9300910403DE
:104310001091050320910603309107036027712750
:10432000822793271F910F910C94D3200895292F52
:10433000220F920F990F890FA82FA695A695A695E3
:10434000877051E001C0550F8A95EAF785E0A89F74
:10435000D001112420E030E070E0F901EA0FFB1FEA
:10436000E353FD4F4081CB01022E02C09695879505
:104370000A94E2F781709927819584278523842701
:1043800080832F5F3F4F2530310539F70895292F5E
:10439000220F920F990F890F682F66956695669583
:1043A000982F977085E0689FB001112440E050E09D
:1043B00080E0FA01E60FF71FE353FD4F208130E064
:1043C000092E02C0369527950A94E2F7217033270B
:1043D000042E01C0220F0A94EAF7822B4F5F5F4F31
:1043E0004530510531F70895BF92CF92DF92EF9299
:1043F000FF920F931F93CF93DF938C01C09008031C
:10440000D0900903E0900A03F0900B03809104031D
:1044100090910503A0910603B0910703C82AD92AF9
:10442000EA2AFB2ACFE1D0E0D701C6010C2E04C056
:10443000B695A795979587950A94D2F780FF07C000
:10444000BC2EB8018C2F0E940F0B019719F42197F5
:1044500058F7B12C8B2DDF91CF911F910F91FF90C9
:10446000EF90DF90CF90BF900895CF93DF93EC0152
:104470000E94F421BE010E940F0BDF91CF9108959D
:104480001F93CF93DF93EB0190919202992321F038
:10449000CB010E94352213C0882349F0CB010E9432
:1044A000F421182F682FCE010E94972104C0CB0160
:1044B0000E94C721182FBE01812F0E940F0BDF9190
:1044C000CF911F91089580910C03859585958595D1
:1044D000089580910C038770089590910C03977054
:1044E00081E009F480E0089580913003089590916F
:1044F0003003892B80933003089580959091300389
:104500008923809330030895809330030895109297
:104510003003089590912F03892B80932F030895E2
:10452000809590912F03892380932F0308951092F3
:104530002F03089590912E03892B80932E030895C5
:10454000809590912E03892380932E0308951092D5
:104550002E03089580910D03089508950C94AD22C3
:1045600090910D03981721F080930D030C94AE22C7
:10457000089580910D03882329F010920D0380E0A7
:104580000C94AE220895E0911201F09113018091F4
:1045900030038083E0911201F091130190818091AA
:1045A0002F03892B8083E0911201F09113019081F8
:1045B00080912E03892B808380910D03882381F0C5
:1045C000E0911201F09113019081892B80838091F9
:1045D0001201909113010E94E72381110E94B922D8
:1045E00080911201909113010C94861608950C94F9
:1045F000F62298E0899F90011124262B20930C032A
:104600000E94F92080910C038595859585950C94E1
:10461000F72210920C0380E00C94F72220910C03F7
:104620008095822380930C03982F977079F430E063
:10463000482F082E000C550B2417350739F08595A7
:10464000859585950E941A210C9409230895CF928F
:10465000DF92EF92FF926C01EE24FF24C114D1048B
:10466000E104F10421F0C701B60120E101C020E01E
:10467000C72ED82EE92EFF24C114D104E104F10481
:1046800019F0285FC701B6016B017C0154E0F69474
:10469000E794D794C7945A95D1F7C114D104E10493
:1046A000F10419F02C5FC701B6016B017C0142E0F7
:1046B000F694E794D794C7944A95D1F7C114D104DE
:1046C000E104F10419F02E5FC701B601DC01CB0152
:1046D000B695A79597958795892B8A2B8B2B09F0F3
:1046E0002F5F822FFF90EF90DF90CF90089580E0B2
:1046F00090E00E942D3521E08D3E9E4F09F020E094
:10470000822F089582E090E00C941F3583E090E0C2
:104710000C941F3584E090E00C941F35682F84E0E2
:1047200090E00C943335AB01BC018FE090E00C9429
:104730004535AB01BC0183E190E00C94453560E068
:1047400070E0CB010C94992360E070E0CB010E94F3
:1047500093230C949F236DEE7EEF80E090E00E9407
:10476000513560E082E090E00E94333560E083E004
:1047700090E00E94333510920803109209031092C2
:104780000A0310920B0360E084E090E00E9433354E
:1047900060E085E090E00E94333560E086E090E0E4
:1047A0000E9433356FEF87E090E00E94333540E0A0
:1047B00050E0BA0188E090E00E94453560E08DE06D
:1047C00090E00E9433350C94A4230C94AB23FC019D
:1047D000329680912301882331F08091AC0387FFCA
:1047E00002C09EE101C096E080E0915028F0219146
:1047F0002223D9F38F5FF9CF08959C01FC013296F3
:104800009FEF80E04191461789F09F3F19F44111D5
:1048100001C0982F8F5F8630A9F79F3F39F0F901CB
:10482000E90FF11D97FDFA95628308950895FC0143
:10483000329608962081261301C010823196E8171F
:10484000F907C1F70895262F2695269526952E312E
:1048500068F4FC01E20FF11D677021E030E001C057
:10486000220F6A95EAF78281282B22830895262F4A
:104870002695269526952E3170F4FC01E20FF11D48
:10488000677021E030E001C0220F6A95EAF72095B9
:10489000828128232283089520912301222329F055
:1048A0002091AC0327FD0C9423240C94FD2320912C
:1048B0002301222329F02091AC0327FD0C943724F7
:1048C0000C94172420912301FC013296222331F00D
:1048D0008091AC0387FF02C08EE101C086E0DF015A
:1048E0001D928A95E9F7089508950C9474240E9406
:1048F00075248091B203843049F11092320320E490
:1049000088E190E00FB6F894A895809360000FBE00
:104910002093600080E00E9441080E94752483B7C4
:10492000817F846083BF83B7816083BF78948895DB
:1049300083B78E7F83BF0FB6F894A89580916000EF
:10494000886180936000109260000FBE0895089502
:10495000CF930E947B040E9424050E94A724C0E0FC
:104960008C2F0E946C05811104C0CF5FCE30C1F73F
:1049700001C081E0CF91089508950C94BC240E9459
:10498000BE1C0E947A160E9441080C94BD241F92FE
:104990000F920FB60F9211248F939F93AF93BF93F3
:1049A00080913203811113C08091A8039091A903D3
:1049B000A091AA03B091AB034196A11DB11D8093B4
:1049C000A8039093A903A093AA03B093AB03BF914C
:1049D000AF919F918F910F900FBE0F901F901895E0
:1049E00082E084BD93E095BD9AEF97BD80936E0001
:1049F00008952FB7F8948091A8039091A903A091EE
:104A0000AA03B091AB032FBF0895CF92DF92EF922C
:104A1000FF920F931F932FB7F8944091A8035091E2
:104A2000A9036091AA037091AB032FBF6A017B01B8
:104A3000EE24FF248C0120E030E0C016D106E2060F
:104A4000F30610F4415051099A01281B390BC90192
:104A50001F910F91FF90EF90DF90CF900895789481
:104A60001F920F920FB60F9211248F939F93AF93C3
:104A7000BF938091A8039091A903A091AA03B0913C
:104A8000AB030196A11DB11D8093A8039093A903C8
:104A9000A093AA03B093AB03BF91AF919F918F9165
:104AA0000F900FBE0F901F901895F89481E080939F
:104AB000E00080E28093D800E9ECF0E010828FE122
:104AC0009EE40197F1F700C000001DBA1092680043
:104AD0001CBC10BE1FBA10927A0010926E00109289
:104AE0006F0010927100109272001082ECEBF0E0F7
:104AF000108214B817B81AB81DB810BA108215B8B9
:104B000018B81BB81EB811BA0C94003F08950E9443
:104B10007723811102C00E94E5230E9482238093A3
:104B200031030E948A2390E09093AD038093AC03FD
:104B30000E948623682F70E080E090E00C9499201A
:104B40008091360380FF0BC06091170185E0689F5C
:104B5000B001112475956795759567952BC081FFF8
:104B600009C06091170185E0689FB0011124759517
:104B7000679520C082FF07C06091170185E0689F9C
:104B8000B001112417C0909137039923D1F060919F
:104B90001601961788F72091170185E0289F90014C
:104BA0001124929FA001939F500D112470E0CA011F
:104BB0000E944A326038710540F46115710539F080
:104BC00002C065E070E0862F08958FE7089581E0C8
:104BD00008958091360380FF08C06091150170E050
:104BE000759567957595679521C081FF06C06091A1
:104BF000150170E07595679519C082FF04C060913A
:104C0000150170E010C0909137039923C1F06091B5
:104C100014019617A0F780911501899FC0011124F6
:104C200070E00E944A326038710528F46115710500
:104C300021F0862F08958FE7089581E0089561E0BF
:104C400070E0F4CF803F21F40E94A025819504C03C
:104C5000813F29F40E94A02580933B030895823F61
:104C600021F40E94A025819504C0833F29F40E946D
:104C7000A02580933A030895893F19F40E94E925FD
:104C800005C08A3F31F40E94E925819580933C0359
:104C900008958B3F21F40E94E925819504C08C3F43
:104CA00029F40E94E92580933D030895843F21F46F
:104CB00080913903816017C0853F21F480913903C9
:104CC000826011C0863F21F48091390384600BC05B
:104CD000873F21F480913903886005C0883F31F413
:104CE0008091390380618093390308958D3F21F4C9
:104CF0008091360381600BC08E3F21F48091360392
:104D0000826005C08F3F29F48091360384608093D0
:104D100036030895803F39F480913B0387FF6CC0D0
:104D200010923B0369C0813F29F480913B03181620
:104D3000BCF362C090913A03823F29F497FF5CC0B4
:104D400010923A0359C0833F19F41916CCF354C09A
:104D5000893F41F480913C0318160CF04DC010922D
:104D60003C034AC08A3F29F480913C0387FF44C03A
:104D7000F6CF8B3F39F480913D0387FF3DC0109201
:104D80003D033AC08C3F29F480913D031816BCF3D3
:104D900033C0843F21F4809139038E7F17C0853F53
:104DA00021F4809139038D7F11C0863F21F48091D9
:104DB00039038B7F0BC0873F21F480913903877FB4
:104DC00005C0883F31F4809139038F7E8093390389
:104DD00013C08D3F21F4809136038E7F0BC08E3F30
:104DE00021F4809136038D7F05C08F3F29F4809197
:104DF00036038B7F8093360380913A0381110EC076
:104E000080913B0381110AC080913C03811106C04F
:104E100080913D03811102C010923703089588E309
:104E200093E00E94A0160E94F9249093340380938B
:104E3000330308951F93CF93DF93809133039091B1
:104E400034030E940525AC0190913703992321F08A
:104E50002091180130E006C0209135038AE0289F98
:104E6000900111244217530708F47BC080913A0344
:104E7000C0913B03D0913C0310913D03811107C0C9
:104E8000C1116BC0D11169C0111167C06AC09F3FC9
:104E900019F09F5F90933703181624F40E94A02501
:104EA00080933A0380913A0387FF05C00E94A025B2
:104EB000819580933A031C1624F40E94A0258093C8
:104EC0003B0380913B0387FF05C00E94A02581958D
:104ED00080933B0330913A033323E1F020913B036D
:104EE0002223C1F045EB3403C0011124892F990F0F
:104EF000990B009709F481E080933A0335EB230383
:104F0000C0011124892F990F990B009709F481E0B2
:104F100080933B031D1624F40E94E92580933C03F3
:104F200080913C0387FF05C00E94E925819580930D
:104F30003C03111624F40E94E92580933D038091DF
:104F40003D0387FF05C00E94E925819580933D03BD
:104F5000DF91CF911F910C940F279F3F09F099CFBC
:104F6000A1CFDF91CF911F910895E8E3F3E086E0B0
:104F7000DF011D928A95E9F71092370310923603EC
:104F8000089580915E0308950F931F93CF93DF934D
:104F900000D01F92CDB7DEB78C010E94342A823038
:104FA00011F0843021F584E089831B830A8382E039
:104FB0008093E9008FEF9091E800815095FD06C045
:104FC00095ED9A95F1F700008111F5CF8091E800F9
:104FD00085FF0DC040E050E063E070E0CE01019637
:104FE0000E94512A8091E8008E778093E8000F900C
:104FF0000F900F90DF91CF911F910F910895CF9354
:10500000DF9300D01F92CDB7DEB72091B2032430DA
:1050100031F523E02983805891099B838A8382E0BC
:105020008093E9008FEF9091E800815095FD06C0D4
:1050300095ED9A95F1F700008111F5CF8091E80088
:1050400085FF0DC040E050E063E070E0CE010196C6
:105050000E94512A8091E8008E778093E8000F909B
:105060000F900F90DF91CF910895CF93DF93EC01D4
:105070000E94342A823011F08430F9F482E0809367
:10508000E9009FEF8091E800915085FD06C085ED15
:105090008A95F1F700009111F5CF8091E80085FF26
:1050A0000CC040E050E066E070E0CE010E94512A62
:1050B0008091E8008E778093E800DF91CF9108958A
:1050C000CF93DF93EC010E94342A823011F08430B8
:1050D000D9F580912301882339F08091AC0387FFB3
:1050E00003C060E282E002C068E081E08093E900F2
:1050F0008FEF9091E800815095FD06C095ED9A954F
:10510000F1F700008111F5CF8091E80085FF1CC008
:1051100080912301811105C040E050E068E070E01B
:1051200003C070E040E050E0CE010E94512A80911F
:10513000E8008E778093E80080E2FE01AEE3B3E002
:1051400001900D928A95E1F7DF91CF9108958091BA
:10515000B103811109C00E94E62B0E94432C80916B
:10516000E20084608093E20008951092B1030895F4
:10517000089508950C94BF2442E061EC81E00E9400
:10518000602B42E261EC82E00C94602B8091B403CE
:10519000833009F460C030F4813071F0823009F45A
:1051A00099C008958A3009F485C08B3009F46BC02A
:1051B000893009F0A7C020C08091B303813A09F07B
:1051C000A1C08091E800877F8093E8008091B703B9
:1051D0009091B803892B21F460E28EE393E003C041
:1051E00060E080E090E070E00E949C2A8091E800FE
:1051F0008B778093E80008958091B303813209F0A2
:1052000081C08091B7039091B803029708F07AC0EB
:105210008091E800877F8093E8008091E80082FD1C
:1052200005C08091B2038111F8CF6CC02091F300CA
:105230008091F20090E0922B029729F48091F10086
:105240008B7F813021F48091F10080935E03809107
:10525000E8008B7753C08091B303813A09F052C0C4
:105260008091B7039091B803892B09F04BC08091CE
:10527000E800877F8093E8008091E80080FFFCCF02
:105280008091230136C08091B3038132D9F580919A
:10529000B7039091B803892BA9F58091E800877F27
:1052A0008093E8000E94952B8091B50380932301A1
:1052B0000C94BE1C8091B303813221F58091E800EB
:1052C000877F8093E8000E94952B8091B60380939E
:1052D0005F0308958091B303813AA1F48091E800BF
:1052E000877F8093E8008091E80080FFFCCF809169
:1052F0005F038093F1008091E8008E778093E8004F
:105300000C94952B089584B7877F84BF0FB6F894CB
:10531000A895809160008861809360001092600081
:105320000FBE80E880936100109261000E94E21637
:105330000E94E62B0E94432C8091E20084608093BF
:10534000E20078940E94D22E0E94E81689E191E052
:105350000E9475168091B203853069F40E9477240B
:105360008091B0038823B1F30E94A824882391F38D
:105370000E943B2AEFCF0E94F0160E947A14EACFD7
:105380000C94C229292F332723303105C9F064F446
:105390002130310581F02230310509F04CC08BE31A
:1053A00090E029E336E04BC02132310521F1223271
:1053B000310589F140C082E190E024E736E03FC04A
:1053C00099278130910571F02CF4892BA1F5E5E343
:1053D000F6E00DC08230910541F0039761F5EFEFE3
:1053E000F5E005C0EDE1F6E002C0E5E0F6E084910D
:1053F00090E09F0124C06115710541F06130710595
:10540000D1F489E090E024E636E019C089E090E02C
:105410002BE436E014C06115710541F0613071056F
:1054200051F480EC90E026E836E009C080E490E09A
:1054300026E437E004C080E090E020E030E0FA01AC
:105440003183208308950895CF93C82F0E94232A83
:10545000C0936003CF9108958091B203843011F01E
:1054600081E0089582E0089580916003811102C077
:105470000C942C2A089580E189BD82E189BD09B48C
:1054800000FEFDCF8091D8008F7D8093D800809161
:10549000E00082608093E0008091E00081FDFCCF1D
:1054A0000895CF92DF92EF92FF920F931F93CF93C5
:1054B000DF93EC018B016A010E94B42B811133C090
:1054C000C114D10439F0F60180819181081B190BB8
:1054D000C80FD91FE12CF12C0115110519F180918C
:1054E000E80085FD16C08091E8008E778093E80083
:1054F000C114D10449F0F60180819181E80EF91EB2
:10550000F182E08285E00FC00E94B42B882321F352
:105510000AC089918093F10001501109FFEFEF1A41
:10552000FF0ADACF80E0DF91CF911F910F91FF90BA
:10553000EF90DF90CF9008952091B9033091BA0396
:105540002617370748F06115710539F42091E800F6
:105550002E772093E80001C0B90140E06115710584
:10556000A9F12091B203222309F443C0253009F4A4
:1055700042C02091E80023FD40C02091E80022FDB8
:1055800032C02091E80020FFE9CF4091F300209144
:10559000F20030E0342BFC01CF016115710559F0A8
:1055A0002830310540F481918093F10061507109F8
:1055B0002F5F3F4FF1CF41E02830310509F040E047
:1055C0002091E8002E772093E800C8CF4111C9CF81
:1055D0000AC08091B203882361F0853061F0809128
:1055E000E80083FD0AC08091E80082FFF2CF80E0EE
:1055F000089582E0089583E0089581E00895209160
:10560000B9033091BA032617370748F061157105C1
:1056100039F42091E8002E772093E80001C0B90109
:10562000FC0120E06115710591F18091B20388239E
:1056300009F440C0853009F43FC08091E80083FD43
:105640003DC08091E80082FD2FC08091E80080FF7E
:10565000E9CF2091F3008091F20090E0922B611548
:10566000710559F08830910540F424912093F100A0
:105670003196615071090196F2CF21E0089709F047
:1056800020E08091E8008E778093E800CBCF211155
:10569000CCCF0AC08091B203882361F0853061F0DD
:1056A0008091E80083FD0AC08091E80082FFF2CF7C
:1056B00080E0089582E0089583E0089581E00895F0
:1056C000982F973058F59093E900981739F070911A
:1056D000EC002091ED005091F00003C0242F762FB4
:1056E00050E021FF19C03091EB003E7F3093EB007A
:1056F0003091ED003D7F3093ED003091EB00316053
:105700003093EB007093EC002093ED005093F00089
:105710002091EE0027FF07C09F5FD3CF8F7080934B
:10572000E90081E0089580E008958091B30387FF48
:1057300011C08091E80082FD05C08091B203811103
:10574000F8CF11C08091E8008B770BC08091B20335
:10575000882349F08091E80080FFF8CF8091E8002D
:105760008E778093E80008952091E4003091E50061
:1057700095E64091EC00842F817040FF22C080911B
:10578000E80080FD1CC08091B203882391F0853031
:1057900091F08091EB0085FD10C04091E4005091A4
:1057A000E5004217530729F39A01915011F784E05D
:1057B000089582E0089583E0089581E0089580E0EF
:1057C00008954091E80042FFDECF08950E94542CD6
:1057D0000E945C2CE0EEF0E0808181608083E8ED47
:1057E000F0E080818F77808319BCA7EDB0E08C91C9
:1057F0008E7F8C9380818F7E80831092B103089579
:105800000F931F93CF93DF930E94542C0E945C2C24
:10581000C8EDD0E088818F7788838881806888830D
:1058200088818F7D888319BC1092B2031092AE03D9
:105830001092B0031092AF0300EE10E0F8018081E7
:105840008B7F808388818160888342E060E080E094
:105850000E94602BE1EEF0E080818E7F8083E2EE9B
:10586000F0E0808181608083808188608083F8019E
:1058700080818E7F8083888180618883DF91CF9152
:105880001F910F910895E8EDF0E080818F7E808375
:10589000E7EDF0E080818160808384E082BF81E079
:1058A0008093B1030C94002CE8EDF0E080818E7FB2
:1058B00080831092E20008951092DA001092E100C5
:1058C00008951F920F920FB60F9211242F933F93BA
:1058D0004F935F936F937F938F939F93AF93BF93F8
:1058E000EF93FF938091E10082FF0BC08091E20073
:1058F00082FF07C08091E1008B7F8093E1000E94CE
:10590000D12E8091DA0080FF1FC08091D80080FFE7
:105910001BC08091DA008E7F8093DA008091D900DD
:1059200080FF0DC080E189BD82E189BD09B400FE20
:10593000FDCF81E08093B2030E94A72805C019BC67
:105940001092B2030E94B5288091E10080FF19C037
:105950008091E20080FF15C08091E2008E7F8093ED
:10596000E2008091E20080618093E2008091D800A3
:1059700080628093D80019BC85E08093B2030E94B6
:10598000B9288091E10084FF30C08091E20084FF5B
:105990002CC080E189BD82E189BD09B400FEFDCF44
:1059A0008091D8008F7D8093D8008091E1008F7E18
:1059B0008093E1008091E2008F7E8093E2008091ED
:1059C000E20081608093E2008091AE03882311F0B1
:1059D00084E007C08091E30087FD02C081E001C040
:1059E00083E08093B2030E94BA288091E10083FF94
:1059F00029C08091E20083FF25C08091E100877F6C
:105A00008093E10082E08093B2031092AE03809114
:105A1000E1008E7F8093E1008091E2008E7F809391
:105A2000E2008091E20080618093E20042E060E069
:105A300080E00E94602B8091F00088608093F000ED
:105A40000E94B828FF91EF91BF91AF919F918F91E4
:105A50007F916F915F914F913F912F910F900FBE6A
:105A60000F901F9018951F920F920FB60F9211244E
:105A70002F933F934F935F936F937F938F939F9356
:105A8000AF93BF93CF93DF93EF93FF93C091E90060
:105A9000CF708091EC00D82FD17080FDD0E81092AB
:105AA000E9008091F000877F8093F00078940E9455
:105AB000772D1092E9008091F00088608093F000CB
:105AC000CD2BCF70C093E900FF91EF91DF91CF9183
:105AD000BF91AF919F918F917F916F915F914F9106
